S012000050574D5F4472617765722E737265635A
S11300000C942A000C9434000C9434000C943400A6
S11300100C9434000C9434000C9434000C9434008C
S11300200C9434000C9434000C9434000C9434007C
S11300300C9434000C9434000C9434000C9434006C
S11300400C9434000C9434000C9434000C9434005C
S11300500C94340011241FBECFE5D8E0DEBFCDBF21
S11300600E9436000C9495000C94000041E063E07B
S113007081E00E94460068E485E00E94920083B714
S1130080806383BF12BE8FE78CBFFFCF4130A1F5E1
S1130090813089F028F08230C9F0833011F108955D
S11300A02AB381E090E002C0880F991F6A95E2F7B5
S11300B0822B8ABB089527B381E090E002C0880FA9
S11300C0991F6A95E2F7822B87BB089524B381E0D8
S11300D090E002C0880F991F6A95E2F7822B84BBD7
S11300E0089521B381E090E002C0880F991F6A95BA
S11300F0E2F7822B81BB0895411113C0813049F08E
S113010028F0823049F0833051F008958AB38ABBD5
S1130110089587B387BB089584B384BB089581B3DE
S111012081BB0895862B83BF0895F894FFCF0A
S9030000FC
