S012000050574D5F4472617765722E737265635A
S11300000C942A000C9447000C9447000C9447006D
S11300100C9447000C9447000C9442010C94470044
S11300200C9447000C9447000C9447000C94470030
S11300300C9447000C9447000C9447000C94470020
S11300400C9447000C9447000C9447000C94470010
S11300500C94470011241FBECFE5D8E0DEBFCDBF0E
S113006012E0A0E6B0E0E8EEF6E002C005900D92E2
S1130070A635B107D9F722E0A6E5B2E001C01D928A
S1130080AE35B207E1F70E9491010C9472030C940F
S1130090000041E060E082E00E94050241E061E08E
S11300A082E00E94050241E062E082E00E940502D3
S11300B041E063E082E00E94050241E064E082E006
S11300C00E9405026FEF80E00E94E5020895682F08
S11300D080E00E94F50240E060E082E00E94750248
S11300E040E061E082E00E94750241E062E082E06B
S11300F00E9475028AE18A95F1F700C040E062E04F
S113010082E00E9475020895682F80E00E94F50243
S113011041E060E082E00E94750240E061E082E03C
S11301200E94750241E062E082E00E9475028AE169
S11301308A95F1F700C040E062E082E00E94750217
S11301400895813089F028F08230C9F0833011F1AC
S1130150089540E063E082E00E94750240E064E0BC
S113016082E00E947502089541E063E082E00E940B
S1130170750240E064E082E00E947502089540E068
S113018063E082E00E94750241E064E082E00E9444
S11301907502089541E063E082E00E94750241E047
S11301A064E082E00E947502089580640E94670002
S11301B00895886B0E9467000895CF93DF93D82F2A
S11301C0C0E012C08D2F90E08097FC01EE0FFF1F5E
S11301D0EE0FFF1FE80FF91FEC0FF11DE05AFF4F60
S11301E080810E948400CF5FC53060F3DF91CF919E
S11301F00895CF93DF93EC0103C00E94DD002196A4
S113020088818111FACFDF91CF9108950F931F93C5
S1130210CF93DF9300D000D01F92CDB7DEB71A8200
S11302201982FE01339623E0DF011D922A95E9F736
S11302308E010F5F1F4F2AE030E040E050E00E9443
S11302403103605DF80161938F01622F732F842F56
S1130250952F16161706180619066CF3D8018E91F9
S11302608D010E94DD00CE01019680179107B1F740
S11302700F900F900F900F900F90DF91CF911F91DF
S11302800F9108951F920F920FB60F9211242F937E
S11302903F934F935F936F937F938F939F93AF930A
S11302A0BF93EF93FF93809156028F5F8093560222
S11302B0813039F486B597B590935D0280935C02E2
S11302C01FC0823051F486B597B590935B0280933A
S11302D05A0280E00E94250313C0833089F486B556
S11302E097B5909359028093580281E00E942503A8
S11302F0109256021DBC1CBC81E080935702F894F6
S1130300FF91EF91BF91AF919F918F917F916F91E9
S11303105F914F913F912F910F900FBE0F901F90BF
S1130320189541E063E081E00E94050240E066E048
S113033083E00E9405020E94490081E00E94A1001E
S11303408FE30E94670068E085E00E94050381E076
S11303500E94080312BE84E68CBF60E085E00E9420
S1130360100381E00E94250389B7806289BF1DBC08
S11303701CBC7894809157028823E1F380E00E94AA
S1130380D90080E00E94D50080E492E00E94F90048
S113039082E00E94A10080E00E94D90080E00E94D7
S11303A0D50087E492E00E94F900609158027091B0
S11303B0590280915A0290915B02681B790B80E08C
S11303C090E00E94060181E00E94A10081E00E9469
S11303D0D90080E00E94D5008EE492E00E94F900EA
S11303E060915A0270915B0280915C0290915D026F
S11303F0681B790B80E090E00E94060186E00E9471
S1130400D90080E00E94D500B5CF4130A1F58130FC
S113041089F028F08230C9F0833011F108952AB3AD
S113042081E090E002C0880F991F6A95E2F7822B61
S11304308ABB089527B381E090E002C0880F991F1A
S11304406A95E2F7822B87BB089524B381E090E09C
S113045002C0880F991F6A95E2F7822B84BB089526
S113046021B381E090E002C0880F991F6A95E2F7FA
S1130470822B81BB0895411137C0813091F028F05F
S11304808230D9F0833029F108952AB381E090E0D5
S113049002C0880F991F6A95E2F7809582238ABB70
S11304A0089527B381E090E002C0880F991F6A95F0
S11304B0E2F78095822387BB089524B381E090E01E
S11304C002C0880F991F6A95E2F78095822384BB46
S11304D0089521B381E090E002C0880F991F6A95C6
S11304E0E2F78095822381BB08954130A1F58130E4
S11304F089F028F08230C9F0833011F108952BB3CC
S113050081E090E002C0880F991F6A95E2F7822B80
S11305108BBB089528B381E090E002C0880F991F37
S11305206A95E2F7822B88BB089525B381E090E0B9
S113053002C0880F991F6A95E2F7822B85BB089544
S113054022B381E090E002C0880F991F6A95E2F718
S1130550822B82BB0895411137C0813091F028F07D
S11305608230D9F0833029F108952BB381E090E0F3
S113057002C0880F991F6A95E2F7809582238BBB8E
S1130580089528B381E090E002C0880F991F6A950E
S1130590E2F78095822388BB089525B381E090E03B
S11305A002C0880F991F6A95E2F78095822385BB64
S11305B0089522B381E090E002C0880F991F6A95E4
S11305C0E2F78095822382BB0895813041F028F0C0
S11305D0823039F0833039F008956ABB089567BBDF
S11305E0089564BB089561BB0895813041F028F0FB
S11305F0823039F0833039F008956BBB089568BBBD
S1130600089565BB089562BB0895862B83BF089542
S113061023B730E1839FC0011124822B83BF089547
S11306201FBC1EBC9EB5262F2695269530E0220FB2
S1130630331F220F331F220F331F822B892B8EBDB2
S11306408FB56370682B6FBD0895882331F08130B6
S113065039F48EB580648EBD08958EB58F7B8EBDC2
S11306600895052E97FB1EF400940E94480357FD3D
S113067007D00E94500307FC03D04EF40C944803A7
S113068050954095309521953F4F4F4F5F4F0895BA
S113069090958095709561957F4F8F4F9F4F0895EA
S11306A0A1E21A2EAA1BBB1BFD010DC0AA1FBB1F72
S11306B0EE1FFF1FA217B307E407F50720F0A21BE4
S11306C0B30BE40BF50B661F771F881F991F1A9451
S11306D069F760957095809590959B01AC01BD017B
S10B06E0CF010895F894FFCF47
S11306E8000000000000005F00000007000700147D
S11306F87F147F14242A7F2A12231308646236493C
S11307085522500005030000001C2241000041222C
S11307181C00082A1C2A0808083E08080050300053
S113072800080808080800303000002010080402F7
S11307383E5149453E00427F4000426151494621AD
S113074841454B311814127F1027454545393C4A19
S11307584949300171090503364949493606494969
S1130768291E003636000000563600000008142200
S113077841141414141441221408000201510906E6
S1130788324979413E7E1111117E7F494949363EED
S1130798414141227F4141221C7F494949417F0906
S11307A80901013E414151327F0808087F00417F19
S11307B841002040413F017F081422417F404040CE
S11307C8407F0204027F7F0408107F3E4141413E7E
S11307D87F090909063E4151215E7F0919294646C8
S11307E84949493101017F01013F4040403F1F20F1
S11307F840201F7F2018207F6314081463030478A3
S11308080403615149454300007F41410204081033
S11308182041417F0000040201020440404040405E
S1130828000102040020545454787F484444383862
S113083844444420384444487F3854545418087E67
S1130848090102081454543C7F0804047800447DC8
S113085840002040443D00007F10284400417F4070
S1130868007C041804787C08040478384444443828
S11308787C14141408081414187C7C08040408480C
S113088854545420043F4440203C4040207C1C20C5
S113089840201C3C4030403C44281028440C505014
S11308A8503C4464544C44000836410000007F0026
S11308B800004136080008082A1C08081C2A0808F1
S11308C8467265713A2000447574793A2000544997
S10908D84D453A2000002A
S9030000FC
