S012000050574D5F4472617765722E737265635A
S11300000C942A000C9447000C9447000C9447006D
S11300100C9447000C9447000C9449000C9447003E
S11300200C9447000C9447000C9447000C94470030
S11300300C9447000C9447000C9447000C94470020
S11300400C9447000C9447000C9447000C94470010
S11300500C94470011241FBECFE5D8E0DEBFCDBF0E
S113006012E0A0E6B0E0E0E5FEE002C005900D92EB
S1130070A236B107D9F722E0A2E6B2E001C01D9290
S1130080AA36B207E1F70E945D030C9426070C948C
S113009000001F920F920FB60F9211242F933F93DB
S11300A04F935F936F937F938F939F93AF93BF937C
S11300B0EF93FF93809162028F5F8093620281309D
S11300C059F40E9466040E94A104909369028093EB
S11300D068020E9462043DC0823071F40E9466048A
S11300E00E94A10490936702809366020E946204B6
S11300F080E00E9492042DC0833059F50E9466046A
S11301000E94A104909365028093640281E080932D
S113011063020E9479040E94A80480916402909171
S113012065022091660230916702821B930B9093C3
S11301306502809364028091660290916702209127
S1130140680230916902821B930B9093670280933B
S11301506602FF91EF91BF91AF919F918F917F9133
S11301606F915F914F913F912F910F900FBE0F9020
S11301701F90189541E063E081E00E94620340E033
S113018066E083E00E9462030E941D0281E00E94F7
S113019075028FE30E943B0268E484E00E946A04D3
S11301A082E00E946D0480E00E9475048FE70E9443
S11301B0770460E084E00E947D0481E00E94920460
S11301C089B7806289BF80E090E00E949E040E940B
S11301D0620408958F929F92AF92BF92CF92DF9262
S11301E0EF92FF920F931F93CF93DF93809163025B
S11301F0882309F415C181E00E94750280E00E9401
S1130200AD0280E00E94A9028AE492E00E94CD023D
S1130210609166027091670280E090E00E94C605DA
S11302202DEB37E346E857E30E9478069B01AC01C7
S113023060E070E080E89FE30E941E050E941703BF
S113024081E00E94750281E00E94AD0280E00E947C
S1130250A90281E592E00E94CD026091660270914C
S1130260670280E090E00E94C6052DEB37E346E884
S113027057E30E94780620E030E04AE754E40E9405
S113028078060E94170381E00E94750282E00E94B2
S1130290AD0280E00E94A90288E592E00E94CD02AE
S11302A0609164027091650280E090E00E94C6054E
S11302B06B017C01609166027091670280E090E0BE
S11302C00E94C6059B01AC01C701B6010E941E0530
S11302D020E030E048EC52E40E9478060E941703C4
S11302E08FE592E00E94CD0286E00E94AD0280E09C
S11302F00E94A902C0E0D0E08FC0C034D1054CF008
S113030082E00E94750286E00E94AD0280E00E94B5
S1130310A90287E690E00E94470300E010E007C0CE
S113032085E690E00E94470321960F5F1F4FB801B6
S1130330012E000C880B990B0E94C8056B017C01EF
S1130340609164027091650280E090E00E94C605AD
S11303504B015C01609166027091670280E090E05D
S11303600E94C6059B01AC01C501B4010E941E0593
S113037020E030E040E752E40E9478069B01AC01A3
S1130380C701B6010E941905882354F282E690E061
S11303900E94470300E010E007C080E690E00E945E
S11303A0470321960F5F1F4FB801012E000C880BE5
S11303B0990B0E94C8056B017C01609164027091E5
S11303C0650280E090E00E94C6054B015C016091EB
S11303D066027091670280E090E00E94C6059B016E
S11303E0AC01C501B4010E941E0520E030E040E7E5
S11303F052E40E9478069B01AC0160E070E080E763
S113040092E40E94AC049B01AC01C701B6010E94B6
S11304101905882314F22496C038D1050CF46DCF45
S1130420DF91CF911F910F91FF90EF90DF90CF90CC
S1130430BF90AF909F908F90089541E060E082E07C
S11304400E94620341E061E082E00E94620341E0B5
S113045062E082E00E94620341E063E082E00E9485
S1130460620341E064E082E00E9462036FEF80E097
S11304700E9442040895682F80E00E94520440E0E4
S113048060E082E00E94D20340E061E082E00E94EA
S1130490D20341E062E082E00E94D2038AE18A95BD
S11304A0F1F700C040E062E082E00E94D2030895C8
S11304B0682F80E00E94520441E060E082E00E94E4
S11304C0D20340E061E082E00E94D20341E062E0B6
S11304D082E00E94D2038AE18A95F1F700C040E0ED
S11304E062E082E00E94D2030895813089F028F00E
S11304F08230C9F0833011F1089540E063E082E076
S11305000E94D20340E064E082E00E94D203089596
S113051041E063E082E00E94D20340E064E082E0D4
S11305200E94D203089540E063E082E00E94D20377
S113053041E064E082E00E94D203089541E063E078
S113054082E00E94D20341E064E082E00E94D20390
S1130550089580640E943B020895886B0E943B02C8
S11305600895CF93DF93D82FC0E012C08D2F90E071
S11305708097FC01EE0FFF1FEE0FFF1FE80FF91F1E
S1130580EC0FF11DE659FF4F80810E945802CF5FA6
S1130590C53060F3DF91CF910895CF93DF93EC01E1
S11305A003C00E94B102219688818111FACFDF91A4
S11305B0CF9108950F931F93CF93DF9300D000D072
S11305C01F92CDB7DEB71A821982FE01339623E05B
S11305D0DF011D922A95E9F78E010F5F1F4F2AE074
S11305E030E040E050E00E94E506605DF801619370
S11305F08F01622F732F842F952F16161706180656
S113060019066CF305C0D8018E918D010E94B102C8
S1130610CE01019680179107B1F70F900F900F90BC
S11306200F900F90DF91CF911F910F9108958F92AA
S11306309F92AF92BF92CF92DF92EF92FF926B01A3
S11306407C010E9490054B015C010E94DA028EE25B
S11306500E94B102C501B4010E94C6059B01AC0110
S1130660C701B6010E94AC0420E030E048EC52E43B
S11306700E9478060E9490050E94DA02FF90EF9093
S1130680DF90CF90BF90AF909F908F9008950F937D
S11306901F93CF93DF938C01C0E0D0E003C00E948E
S11306A058022196F801EC0FFD1F80818111F7CFCC
S11306B0DF91CF911F910F9108950E94BA000E947B
S11306C0EA00FDCF4130A1F5813089F028F0823075
S11306D0C9F0833011F108952AB381E090E002C09B
S11306E0880F991F6A95E2F7822B8ABB089527B376
S11306F081E090E002C0880F991F6A95E2F7822B8F
S113070087BB089524B381E090E002C0880F991F4D
S11307106A95E2F7822B84BB089521B381E090E0CF
S113072002C0880F991F6A95E2F7822B81BB089556
S1130730411137C0813091F028F08230D9F08330F4
S113074029F108952AB381E090E002C0880F991F2F
S11307506A95E2F7809582238ABB089527B381E0E6
S113076090E002C0880F991F6A95E2F78095822372
S113077087BB089524B381E090E002C0880F991FDD
S11307806A95E2F78095822384BB089521B381E0C2
S113079090E002C0880F991F6A95E2F78095822342
S11307A081BB08954130A1F5813089F028F0823071
S11307B0C9F0833011F108952BB381E090E002C0B9
S11307C0880F991F6A95E2F7822B8BBB089528B393
S11307D081E090E002C0880F991F6A95E2F7822BAE
S11307E088BB089525B381E090E002C0880F991F6B
S11307F06A95E2F7822B85BB089522B381E090E0ED
S113080002C0880F991F6A95E2F7822B82BB089574
S1130810411137C0813091F028F08230D9F0833013
S113082029F108952BB381E090E002C0880F991F4D
S11308306A95E2F7809582238BBB089528B381E003
S113084090E002C0880F991F6A95E2F78095822391
S113085088BB089525B381E090E002C0880F991FFA
S11308606A95E2F78095822385BB089522B381E0DF
S113087090E002C0880F991F6A95E2F78095822361
S113088082BB0895813041F028F0823039F0833002
S113089039F008956ABB089567BB089564BB089551
S11308A061BB0895813041F028F0823039F0833003
S11308B039F008956BBB089568BB089565BB08952E
S11308C062BB08958FB780688FBF08958FB7806823
S11308D08FBF0895862B83BF089523B730E1839F8C
S11308E0C0011124822B83BF089582BF08958CBF59
S11308F0089583B7887F83BF08951FBC1EBC9EB52F
S1130900262F2695269530E0220F331F220F331F02
S1130910220F331F822B892B8EBD8FB56370682BFA
S11309206FBD0895882331F0813039F48EB5806429
S11309308EBD08958EB58F7B8EBD08959DBD8CBDF3
S1130940089526B587B590E0982F8827822B0895BF
S11309508EB5887F8EBD08955058BB27AA270E9464
S1130960C4040C943E060E94300638F00E943706F8
S113097020F039F49F3F19F426F40C942D060EF45C
S1130980E095E7FB0C942706E92F0E944F0658F3E5
S1130990BA17620773078407950720F079F4A6F560
S11309A00C9471060EF4E0950B2EBA2FA02D0B01BA
S11309B0B90190010C01CA01A0011124FF27591BA0
S11309C099F0593F50F4503E68F11A16F040A22FA6
S11309D0232F342F4427585FF3CF46953795279517
S11309E0A795F0405395C9F77EF41F16BA0B620B16
S11309F0730B840BBAF09150A1F0FF0FBB1F661F5D
S1130A00771F881FC2F70EC0BA0F621F731F841F9F
S1130A1048F4879577956795B795F7959E3F08F0C5
S1130A20B0CF9395880F08F09927EE0F9795879587
S1130A3008950E94030608F481E008950E94320597
S1130A400C943E060E94370658F00E94300640F08F
S1130A5029F45F3F29F00C94270651110C94720677
S1130A600C942D060E944F0668F39923B1F3552385
S1130A7091F3951B550BBB27AA27621773078407AD
S1130A8038F09F5F5F4F220F331F441FAA1FA9F343
S1130A9035D00E2E3AF0E0E832D091505040E69531
S1130AA0001CCAF72BD0FE2F29D0660F771F881F92
S1130AB0BB1F261737074807AB07B0E809F0BB0B85
S1130AC0802DBF01FF2793585F4F3AF09E3F510599
S1130AD078F00C9427060C9472065F3FE4F3983E7A
S1130AE0D4F3869577956795B795F7959F5FC9F782
S1130AF0880F911D9695879597F90895E1E0660F03
S1130B00771F881FBB1F621773078407BA0720F07B
S1130B10621B730B840BBA0BEE1F88F7E0950895E4
S1130B200E9497056894B1110C94720608950E946E
S1130B30570688F09F5798F0B92F9927B751B0F00E
S1130B40E1F0660F771F881F991F1AF0BA95C9F74D
S1130B5014C0B13091F00E947106B1E008950C9474
S1130B607106672F782F8827B85F39F0B93FCCF327
S1130B70869577956795B395D9F73EF490958095CA
S1130B80709561957F4F8F4F9F4F0895E89409C0EA
S1130B9097FB3EF490958095709561957F4F8F4FAC
S1130BA09F4F9923A9F0F92F96E9BB279395F695C2
S1130BB0879577956795B795F111F8CFFAF4BB0F40
S1130BC011F460FF1BC06F5F7F4F8F4F9F4F16C0A4
S1130BD0882311F096E911C0772321F09EE8872F2E
S1130BE0762F05C0662371F096E8862F70E060E0EA
S1130BF02AF09A95660F771F881FDAF7880F969563
S1130C00879597F90895990F0008550FAA0BE0E806
S1130C10FEEF16161706E807F907C0F012161306BA
S1130C20E407F50798F0621B730B840B950B39F4FA
S1130C300A2661F0232B242B252B21F408950A2660
S1130C4009F4A140A6958FEF811D811D089597F9A0
S1130C509F6780E870E060E008959FEF80EC08955E
S1130C6000240A9416161706180609060895002487
S1130C700A9412161306140605060895092E039401
S1130C80000C11F4882352F0BB0F40F4BF2B11F475
S1130C9060FF04C06F5F7F4F8F4F9F4F089557FDD4
S1130CA09058440F551F59F05F3F71F04795880FD6
S1130CB097FB991F61F09F3F79F08795089512166D
S1130CC013061406551FF2CF4695F1DF08C0161619
S1130CD017061806991FF1CF8695710561050894CA
S1130CE00895E894BB2766277727CB0197F90895E1
S1130CF00E948B060C943E060E94300638F00E9437
S1130D00370620F0952311F00C9427060C942D0639
S1130D1011240C9472060E944F0670F3959FC1F340
S1130D20950F50E0551F629FF001729FBB27F00D95
S1130D30B11D639FAA27F00DB11DAA1F649F6627EA
S1130D40B00DA11D661F829F2227B00DA11D621F39
S1130D50739FB00DA11D621F839FA00D611D221FF3
S1130D60749F3327A00D611D231F849F600D211DD7
S1130D70822F762F6A2F11249F5750409AF0F1F05A
S1130D8088234AF0EE0FFF1FBB1F661F771F881FC3
S1130D9091505040A9F79E3F510580F00C942706CE
S1130DA00C9472065F3FE4F3983ED4F386957795EE
S1130DB06795B795F795E7959F5FC1F7FE2B880F69
S1130DC0911D9695879597F90895052E97FB1EF426
S1130DD000940E94FC0657FD07D00E94040707FCFC
S1130DE003D04EF40C94FC06509540953095219513
S1130DF03F4F4F4F5F4F0895909580957095619543
S1130E007F4F8F4F9F4F0895A1E21A2EAA1BBB1B41
S1130E10FD010DC0AA1FBB1FEE1FFF1FA217B307C2
S1130E20E407F50720F0A21BB30BE40BF50B661FD8
S1130E30771F881F991F1A9469F76095709580959C
S1130E4090959B01AC01BD01CF010895F894FFCFAB
S1130E5008000F08000100080F0000000000000057
S1130E60005F00000007000700147F147F14242A89
S1130E707F2A122313086462364955225000050361
S1130E800000001C2241000041221C00082A1C2AE8
S1130E900808083E08080050300000080808080840
S1130EA0003030000020100804023E5149453E0045
S1130EB0427F400042615149462141454B3118145B
S1130EC0127F1027454545393C4A4949300171098B
S1130ED005033649494936064949291E0036360074
S1130EE0000056360000000814224114141414148F
S1130EF041221408000201510906324979413E7E1B
S1130F001111117E7F494949363E414141227F41B9
S1130F1041221C7F494949417F090901013E414160
S1130F2051327F0808087F00417F41002040413F43
S1130F30017F081422417F404040407F0204027F29
S1130F407F0408107F3E4141413E7F090909063E66
S1130F504151215E7F091929464649494931010118
S1130F607F01013F4040403F1F2040201F7F201849
S1130F70207F631408146303047804036151494512
S1130F804300007F4141020408102041417F0000DA
S1130F9004020102044040404040000102040020D9
S1130FA0545454787F4844443838444444203844A2
S1130FB044487F3854545418087E090102081454D4
S1130FC0543C7F0804047800447D40002040443DA4
S1130FD000007F10284400417F40007C04180478FE
S1130FE07C0804047838444444387C1414140808F5
S1130FF01414187C7C080404084854545420043FF6
S11310004440203C4040207C1C2040201C3C40307C
S1131010403C44281028440C5050503C4464544CE8
S113102044000836410000007F00000041360800FB
S113103008082A1C08081C2A0808467265713A2008
S11310400054494D453A2000447574793A200025EE
S105105000009A
S9030000FC
