S012000050574D5F4472617765722E737265635A
S11300000C942A000C9447000C9447000C9447006D
S11300100C9447000C9447000C9449000C9447003E
S11300200C9447000C9447000C9447000C94470030
S11300300C9447000C9447000C9447000C94470020
S11300400C9447000C9447000C9447000C94470010
S11300500C94470011241FBECFE5D8E0DEBFCDBF0E
S113006012E0A0E6B0E0EEE1FFE002C005900D92E0
S1130070A636B107D9F722E0A6E6B2E001C01D9288
S1130080AE36B207E1F70E94AC030C948D070C94D2
S113009000001F920F920FB60F9211242F933F93DB
S11300A04F935F936F937F938F939F93AF93BF937C
S11300B0EF93FF93809166028F5F80936602813095
S11300C059F40E94B5040E94080590936D02809330
S11300D06C020E94B1043DC0823071F40E94B504E8
S11300E00E94080590936B0280936A020E94B104F7
S11300F080E00E94F9042DC0833059F50E94B504B4
S11301000E940805909369028093680281E08093BD
S113011067020E94C8040E940F05809168029091B2
S1130120690220916A0230916B02821B930B9093B7
S113013069028093680280916A0290916B02209117
S11301406C0230916D02821B930B90936B0280932F
S11301506A02FF91EF91BF91AF919F918F917F912F
S11301606F915F914F913F912F910F900FBE0F9020
S11301701F9018954F925F926F927F928F929F92E9
S1130180AF92BF92CF92DF92EF92FF920F931F93A1
S1130190CF93DF9300D000D0CDB7DEB78091670254
S11301A0882309F41AC1609168027091690280E0A1
S11301B090E00E942D066B017C0160916A027091AF
S11301C06B0280E090E00E942D069B01AC01C70108
S11301D0B6010E9485052B013C0120916A023091F1
S11301E06B023A832983609160007091610080E022
S11301F090E00E942D0620E034E244E75BE40E9494
S113020085056B017C0129813A81B90180E090E088
S11302100E942D06A70196010E94DF069B01AC01F6
S113022060E070E080E89FE30E9485054B015C017B
S113023060916A0270916B0280E090E00E942D064A
S1130240A70196010E94DF0620E030E04AE754E46B
S11302500E94DF066B017C0120E030E048EC52E4B0
S1130260C301B2010E94DF0669837A838B839C8376
S113027081E00E94C40280E00E94FC0280E00E94AF
S1130280F8028FE492E00E941C03C501B4010E94AD
S1130290660381E00E94C40281E00E94FC0280E0C7
S11302A00E94F80286E592E00E941C03C701B60191
S11302B00E94660381E00E94C40282E00E94FC0264
S11302C080E00E94F8028DE592E00E941C0369819F
S11302D07A818B819C810E94660384E692E00E946D
S11302E01C0386E00E94FC0280E00E94F8021A824D
S11302F019826DC089819A81803491054CF082E025
S11303000E94C40286E00E94FC0280E00E94F8027F
S11303108CE690E00E94960300E010E00CC08AE6B0
S113032090E00E94960329813A812F5F3F4F3A83E0
S113033029830F5F1F4FB801012E000C880B990B06
S11303400E942F064B015C0120E030E040E752E4BC
S1130350C301B2010E94DF066B017C019B01AC0169
S1130360C501B4010E9480058823CCF287E690E0A1
S11303700E94960300E010E00BC085E690E00E9426
S1130380960389819A8101969A8389830F5F1F4F0F
S1130390B801012E000C880B990B0E942F064B010B
S11303A05C01A701960160E070E080E792E40E949E
S11303B013059B01AC01C501B4010E94800588238B
S11303C0E4F229813A812C5F3F4F3A832983898162
S11303D09A81803891050CF48DCF0F900F900F9077
S11303E00F90DF91CF911F910F91FF90EF90DF90CD
S11303F0CF90BF90AF909F908F907F906F905F90C1
S11304004F900895809162008330C9F028F48130C0
S113041041F0823069F008958430C1F08530E9F00C
S1130420089581E090E090936100809360000895C6
S113043088E090E09093610080936000089580E4E8
S113044090E09093610080936000089580E091E0D3
S11304509093610080936000089580E094E090930D
S11304606100809360000895CF93DF930E9402029D
S113047041E063E081E00E94B10340E066E083E094
S11304800E94B1030E946C0281E00E94C4028FE3C7
S11304900E948A02C2E6D0E0698188810E94B90480
S11304A08A810E94BC0480E00E94C40484EB0E9400
S11304B0C60460E088810E94CC0481E00E94F904B3
S11304C080E00E94E10480E090E00E9405050E9423
S11304D0B104DF91CF91089541E060E082E00E9491
S11304E0B10341E061E082E00E94B10341E062E0D7
S11304F082E00E94B10341E063E082E00E94B10324
S113050041E064E082E00E94B1036FEF80E00E946A
S113051091040895682F80E00E94A10440E060E007
S113052082E00E94210440E061E082E00E94210414
S113053041E062E082E00E9421048AE18A95F1F7B9
S113054000C040E062E082E00E9421040895682F28
S113055080E00E94A10441E060E082E00E94210466
S113056040E061E082E00E94210441E062E082E038
S11305700E9421048AE18A95F1F700C040E062E01C
S113058082E00E9421040895813089F028F08230AD
S1130590C9F0833011F1089540E063E082E00E94E5
S11305A0210440E064E082E00E942104089541E0D7
S11305B063E082E00E94210440E064E082E00E9463
S11305C02104089540E063E082E00E94210441E0B8
S11305D064E082E00E942104089541E063E082E047
S11305E00E94210441E064E082E00E942104089515
S11305F080640E948A020895886B0E948A0208958A
S1130600CF93DF93D82FC0E012C08D2F90E0809756
S1130610FC01EE0FFF1FEE0FFF1FE80FF91FEC0F99
S1130620F11DE159FF4F80810E94A702CF5FC530C1
S113063060F3DF91CF910895CF93DF93EC0103C072
S11306400E940003219688818111FACFDF91CF9116
S113065008950F931F93CF93DF9300D000D01F9280
S1130660CDB7DEB71A821982FE01339623E0DF018B
S11306701D922A95E9F78E010F5F1F4F2AE030E0A3
S113068040E050E00E944C07605DF80161938F01E7
S1130690622F732F842F952F161617061806190626
S11306A06CF305C0D8018E918D010E940003CE0128
S11306B0019680179107B1F70F900F900F900F904C
S11306C00F90DF91CF911F910F9108958F929F9278
S11306D0AF92BF92CF92DF92EF92FF926B017C01B7
S11306E00E94F7054B015C010E9429038EE20E94DF
S11306F00003C501B4010E942D069B01AC01C70192
S1130700B6010E94130520E030E048EC52E40E9458
S1130710DF060E94F7050E942903FF90EF90DF9007
S1130720CF90BF90AF909F908F9008950F931F9399
S1130730CF93DF938C01C0E0D0E003C00E94A702F6
S11307402196F801EC0FFD1F80818111F7CFDF9115
S1130750CF911F910F9108950E9434020E94BA0014
S1130760FDCF4130A1F5813089F028F08230C9F005
S1130770833011F108952AB381E090E002C0880F1C
S1130780991F6A95E2F7822B8ABB089527B381E00B
S113079090E002C0880F991F6A95E2F7822B87BB0D
S11307A0089524B381E090E002C0880F991F6A95F0
S11307B0E2F7822B84BB089521B381E090E002C06C
S11307C0880F991F6A95E2F7822B81BB0895411126
S11307D037C0813091F028F08230D9F0833029F18C
S11307E008952AB381E090E002C0880F991F6A95AA
S11307F0E2F7809582238ABB089527B381E090E0D5
S113080002C0880F991F6A95E2F78095822387BBFF
S1130810089524B381E090E002C0880F991F6A957F
S1130820E2F78095822384BB089521B381E090E0B0
S113083002C0880F991F6A95E2F78095822381BBD5
S113084008954130A1F5813089F028F08230C9F053
S1130850833011F108952BB381E090E002C0880F3A
S1130860991F6A95E2F7822B8BBB089528B381E028
S113087090E002C0880F991F6A95E2F7822B88BB2B
S1130880089525B381E090E002C0880F991F6A950E
S1130890E2F7822B85BB089522B381E090E002C089
S11308A0880F991F6A95E2F7822B82BB0895411144
S11308B037C0813091F028F08230D9F0833029F1AB
S11308C008952BB381E090E002C0880F991F6A95C8
S11308D0E2F7809582238BBB089528B381E090E0F2
S11308E002C0880F991F6A95E2F78095822388BB1E
S11308F0089525B381E090E002C0880F991F6A959E
S1130900E2F78095822385BB089522B381E090E0CD
S113091002C0880F991F6A95E2F78095822382BBF3
S11309200895813041F028F0823039F0833039F075
S113093008956ABB089567BB089564BB089561BBBD
S11309400895813041F028F0823039F0833039F055
S113095008956BBB089568BB089565BB089562BB99
S113096008958FB780688FBF08958FB780688FBF51
S11309700895862B83BF089523B730E1839FC00178
S11309801124822B83BF089582BF08958CBF0895DC
S113099083B7887F83BF08951FBC1EBC9EB5262FD6
S11309A02695269530E0220F331F220F331F220F86
S11309B0331F822B892B8EBD8FB56370682B6FBD5F
S11309C00895813051F028F0823059F0833069F075
S11309D0089589B7806289BF089589B7806189BF06
S11309E0089589B7886089BF089589B7846089BFED
S11309F00895882331F0813039F48EB580648EBD3A
S1130A0008958EB58F7B8EBD08959DBD8CBD0895D0
S1130A1026B587B590E0982F8827822B08958EB548
S1130A20887F8EBD08955058BB27AA270E942B05A6
S1130A300C94A5060E94970638F00E949E0620F0AA
S1130A4039F49F3F19F426F40C9494060EF4E095BF
S1130A50E7FB0C948E06E92F0E94B60658F3BA17EA
S1130A60620773078407950720F079F4A6F50C94C0
S1130A70D8060EF4E0950B2EBA2FA02D0B01B90168
S1130A8090010C01CA01A0011124FF27591B99F000
S1130A90593F50F4503E68F11A16F040A22F232F0C
S1130AA0342F4427585FF3CF469537952795A7955C
S1130AB0F0405395C9F77EF41F16BA0B620B730B03
S1130AC0840BBAF09150A1F0FF0FBB1F661F771F74
S1130AD0881FC2F70EC0BA0F621F731F841F48F429
S1130AE0879577956795B795F7959E3F08F0B0CFB2
S1130AF09395880F08F09927EE0F97958795089599
S1130B000E946A0608F481E008950E9499050C94F5
S1130B10A5060E949E0658F00E94970640F029F40C
S1130B205F3F29F00C948E0651110C94D9060C9455
S1130B3094060E94B60668F39923B1F3552391F302
S1130B40951B550BBB27AA2762177307840738F038
S1130B509F5F5F4F220F331F441FAA1FA9F335D095
S1130B600E2E3AF0E0E832D091505040E695001C49
S1130B70CAF72BD0FE2F29D0660F771F881FBB1F03
S1130B80261737074807AB07B0E809F0BB0B802DE1
S1130B90BF01FF2793585F4F3AF09E3F510578F00D
S1130BA00C948E060C94D9065F3FE4F3983ED4F37C
S1130BB0869577956795B795F7959F5FC9F7880FE1
S1130BC0911D9695879597F90895E1E0660F771F33
S1130BD0881FBB1F621773078407BA0720F0621BC4
S1130BE0730B840BBA0BEE1F88F7E09508950E94EF
S1130BF0FE056894B1110C94D90608950E94BE06AE
S1130C0088F09F5798F0B92F9927B751B0F0E1F0C9
S1130C10660F771F881F991F1AF0BA95C9F714C079
S1130C20B13091F00E94D806B1E008950C94D80632
S1130C30672F782F8827B85F39F0B93FCCF38695B2
S1130C4077956795B395D9F73EF49095809570950F
S1130C5061957F4F8F4F9F4F0895E89409C097FB8C
S1130C603EF490958095709561957F4F8F4F9F4F7F
S1130C709923A9F0F92F96E9BB279395F6958795C3
S1130C8077956795B795F111F8CFFAF4BB0F11F486
S1130C9060FF1BC06F5F7F4F8F4F9F4F16C088232D
S1130CA011F096E911C0772321F09EE8872F762F63
S1130CB005C0662371F096E8862F70E060E02AF0A4
S1130CC09A95660F771F881FDAF7880F9695879590
S1130CD097F90895990F0008550FAA0BE0E8FEEF65
S1130CE016161706E807F907C0F012161306E407EC
S1130CF0F50798F0621B730B840B950B39F40A26E5
S1130D0061F0232B242B252B21F408950A2609F4C2
S1130D10A140A6958FEF811D811D089597F99F67C6
S1130D2080E870E060E008959FEF80EC089500246F
S1130D300A941616170618060906089500240A943C
S1130D4012161306140605060895092E0394000CC2
S1130D5011F4882352F0BB0F40F4BF2B11F460FF51
S1130D6004C06F5F7F4F8F4F9F4F089557FD90587A
S1130D70440F551F59F05F3F71F04795880F97FB5B
S1130D80991F61F09F3F79F0879508951216130615
S1130D901406551FF2CF4695F1DF08C01616170644
S1130DA01806991FF1CF8695710561050894089579
S1130DB0E894BB2766277727CB0197F908950E940B
S1130DC0F2060C94A5060E94970638F00E949E062F
S1130DD020F0952311F00C948E060C9494061124A3
S1130DE00C94D9060E94B60670F3959FC1F3950F33
S1130DF050E0551F629FF001729FBB27F00DB11D9B
S1130E00639FAA27F00DB11DAA1F649F6627B00D2A
S1130E10A11D661F829F2227B00DA11D621F739F13
S1130E20B00DA11D621F839FA00D611D221F749F21
S1130E303327A00D611D231F849F600D211D822F68
S1130E40762F6A2F11249F5750409AF0F1F088238F
S1130E504AF0EE0FFF1FBB1F661F771F881F9150BC
S1130E605040A9F79E3F510580F00C948E060C94D7
S1130E70D9065F3FE4F3983ED4F38695779567955A
S1130E80B795F795E7959F5FC1F7FE2B880F911DE6
S1130E909695879597F90895052E97FB1EF400946F
S1130EA00E94630757FD07D00E946B0707FC03D01D
S1130EB04EF40C94630750954095309521953F4F1F
S1130EC04F4F5F4F089590958095709561957F4F32
S1130ED08F4F9F4F0895A1E21A2EAA1BBB1BFD0141
S1130EE00DC0AA1FBB1FEE1FFF1FA217B307E40705
S1130EF0F50720F0A21BB30BE40BF50B661F771F5D
S1130F00881F991F1A9469F760957095809590953C
S1110F109B01AC01BD01CF010895F894FFCF01
S1130F1E010005480208000F08000100080F000038
S1130F2E0000000000005F00000007000700147FAF
S1130F3E147F14242A7F2A12231308646236495517
S1130F4E22500005030000001C2241000041221C17
S1130F5E00082A1C2A0808083E0808005030000021
S1130F6E0808080808003030000020100804023E6B
S1130F7E5149453E00427F4000426151494621415C
S1130F8E454B311814127F1027454545393C4A49C3
S1130F9E493001710905033649494936064949293B
S1130FAE1E0036360000005636000000081422419A
S1130FBE14141414144122140800020151090632A7
S1130FCE4979413E7E1111117E7F494949363E4190
S1130FDE4141227F4141221C7F494949417F0909F0
S1130FEE01013E414151327F0808087F00417F4193
S1130FFE002040413F017F081422417F4040404081
S113100E7F0204027F7F0408107F3E4141413E7FF0
S113101E090909063E4151215E7F091929464649AF
S113102E49493101017F01013F4040403F1F2040AB
S113103E201F7F2018207F63140814630304780490
S113104E03615149454300007F41410204081020C9
S113105E41417F0000040201020440404040400030
S113106E0102040020545454787F484444383844D0
S113107E444420384444487F3854545418087E0954
S113108E0102081454543C7F0804047800447D4043
S113109E002040443D00007F10284400417F400062
S11310AE7C041804787C0804047838444444387C5E
S11310BE14141408081414187C7C080404084854E6
S11310CE545420043F4440203C4040207C1C20408B
S11310DE201C3C4030403C44281028440C505050B6
S11310EE3C4464544C44000836410000007F000028
S11310FE004136080008082A1C08081C2A0808465D
S113110E7265713A200054494D453A200044757475
S109111E793A20002500CF
S9030000FC
